{
  "_format": "hh-sol-artifact-1",
  "contractName": "FractionalToken",
  "sourceName": "contracts/MemeNFT.sol",
  "abi": [
    {
      "inputs": [
        {
          "internalType": "address",
          "name": "_initialOwner",
          "type": "address"
        },
        {
          "internalType": "string",
          "name": "name",
          "type": "string"
        },
        {
          "internalType": "string",
          "name": "symbol",
          "type": "string"
        },
        {
          "internalType": "address",
          "name": "_nftContract",
          "type": "address"
        },
        {
          "internalType": "uint256",
          "name": "_nftTokenId",
          "type": "uint256"
        },
        {
          "internalType": "uint256",
          "name": "_totalSupply",
          "type": "uint256"
        }
      ],
      "stateMutability": "nonpayable",
      "type": "constructor"
    },
    {
      "inputs": [
        {
          "internalType": "address",
          "name": "spender",
          "type": "address"
        },
        {
          "internalType": "uint256",
          "name": "allowance",
          "type": "uint256"
        },
        {
          "internalType": "uint256",
          "name": "needed",
          "type": "uint256"
        }
      ],
      "name": "ERC20InsufficientAllowance",
      "type": "error"
    },
    {
      "inputs": [
        {
          "internalType": "address",
          "name": "sender",
          "type": "address"
        },
        {
          "internalType": "uint256",
          "name": "balance",
          "type": "uint256"
        },
        {
          "internalType": "uint256",
          "name": "needed",
          "type": "uint256"
        }
      ],
      "name": "ERC20InsufficientBalance",
      "type": "error"
    },
    {
      "inputs": [
        {
          "internalType": "address",
          "name": "approver",
          "type": "address"
        }
      ],
      "name": "ERC20InvalidApprover",
      "type": "error"
    },
    {
      "inputs": [
        {
          "internalType": "address",
          "name": "receiver",
          "type": "address"
        }
      ],
      "name": "ERC20InvalidReceiver",
      "type": "error"
    },
    {
      "inputs": [
        {
          "internalType": "address",
          "name": "sender",
          "type": "address"
        }
      ],
      "name": "ERC20InvalidSender",
      "type": "error"
    },
    {
      "inputs": [
        {
          "internalType": "address",
          "name": "spender",
          "type": "address"
        }
      ],
      "name": "ERC20InvalidSpender",
      "type": "error"
    },
    {
      "inputs": [
        {
          "internalType": "address",
          "name": "owner",
          "type": "address"
        }
      ],
      "name": "OwnableInvalidOwner",
      "type": "error"
    },
    {
      "inputs": [
        {
          "internalType": "address",
          "name": "account",
          "type": "address"
        }
      ],
      "name": "OwnableUnauthorizedAccount",
      "type": "error"
    },
    {
      "anonymous": false,
      "inputs": [
        {
          "indexed": true,
          "internalType": "address",
          "name": "owner",
          "type": "address"
        },
        {
          "indexed": true,
          "internalType": "address",
          "name": "spender",
          "type": "address"
        },
        {
          "indexed": false,
          "internalType": "uint256",
          "name": "value",
          "type": "uint256"
        }
      ],
      "name": "Approval",
      "type": "event"
    },
    {
      "anonymous": false,
      "inputs": [
        {
          "indexed": true,
          "internalType": "address",
          "name": "previousOwner",
          "type": "address"
        },
        {
          "indexed": true,
          "internalType": "address",
          "name": "newOwner",
          "type": "address"
        }
      ],
      "name": "OwnershipTransferred",
      "type": "event"
    },
    {
      "anonymous": false,
      "inputs": [
        {
          "indexed": true,
          "internalType": "address",
          "name": "from",
          "type": "address"
        },
        {
          "indexed": true,
          "internalType": "address",
          "name": "to",
          "type": "address"
        },
        {
          "indexed": false,
          "internalType": "uint256",
          "name": "value",
          "type": "uint256"
        }
      ],
      "name": "Transfer",
      "type": "event"
    },
    {
      "inputs": [
        {
          "internalType": "address",
          "name": "owner",
          "type": "address"
        },
        {
          "internalType": "address",
          "name": "spender",
          "type": "address"
        }
      ],
      "name": "allowance",
      "outputs": [
        {
          "internalType": "uint256",
          "name": "",
          "type": "uint256"
        }
      ],
      "stateMutability": "view",
      "type": "function"
    },
    {
      "inputs": [
        {
          "internalType": "address",
          "name": "spender",
          "type": "address"
        },
        {
          "internalType": "uint256",
          "name": "value",
          "type": "uint256"
        }
      ],
      "name": "approve",
      "outputs": [
        {
          "internalType": "bool",
          "name": "",
          "type": "bool"
        }
      ],
      "stateMutability": "nonpayable",
      "type": "function"
    },
    {
      "inputs": [
        {
          "internalType": "address",
          "name": "account",
          "type": "address"
        }
      ],
      "name": "balanceOf",
      "outputs": [
        {
          "internalType": "uint256",
          "name": "",
          "type": "uint256"
        }
      ],
      "stateMutability": "view",
      "type": "function"
    },
    {
      "inputs": [],
      "name": "decimals",
      "outputs": [
        {
          "internalType": "uint8",
          "name": "",
          "type": "uint8"
        }
      ],
      "stateMutability": "view",
      "type": "function"
    },
    {
      "inputs": [],
      "name": "name",
      "outputs": [
        {
          "internalType": "string",
          "name": "",
          "type": "string"
        }
      ],
      "stateMutability": "view",
      "type": "function"
    },
    {
      "inputs": [],
      "name": "nftContract",
      "outputs": [
        {
          "internalType": "contract IERC721",
          "name": "",
          "type": "address"
        }
      ],
      "stateMutability": "view",
      "type": "function"
    },
    {
      "inputs": [],
      "name": "nftTokenId",
      "outputs": [
        {
          "internalType": "uint256",
          "name": "",
          "type": "uint256"
        }
      ],
      "stateMutability": "view",
      "type": "function"
    },
    {
      "inputs": [],
      "name": "owner",
      "outputs": [
        {
          "internalType": "address",
          "name": "",
          "type": "address"
        }
      ],
      "stateMutability": "view",
      "type": "function"
    },
    {
      "inputs": [
        {
          "internalType": "uint256",
          "name": "amount",
          "type": "uint256"
        }
      ],
      "name": "redeem",
      "outputs": [],
      "stateMutability": "nonpayable",
      "type": "function"
    },
    {
      "inputs": [],
      "name": "redeemed",
      "outputs": [
        {
          "internalType": "bool",
          "name": "",
          "type": "bool"
        }
      ],
      "stateMutability": "view",
      "type": "function"
    },
    {
      "inputs": [],
      "name": "renounceOwnership",
      "outputs": [],
      "stateMutability": "nonpayable",
      "type": "function"
    },
    {
      "inputs": [],
      "name": "symbol",
      "outputs": [
        {
          "internalType": "string",
          "name": "",
          "type": "string"
        }
      ],
      "stateMutability": "view",
      "type": "function"
    },
    {
      "inputs": [],
      "name": "totalSupply",
      "outputs": [
        {
          "internalType": "uint256",
          "name": "",
          "type": "uint256"
        }
      ],
      "stateMutability": "view",
      "type": "function"
    },
    {
      "inputs": [
        {
          "internalType": "address",
          "name": "to",
          "type": "address"
        },
        {
          "internalType": "uint256",
          "name": "value",
          "type": "uint256"
        }
      ],
      "name": "transfer",
      "outputs": [
        {
          "internalType": "bool",
          "name": "",
          "type": "bool"
        }
      ],
      "stateMutability": "nonpayable",
      "type": "function"
    },
    {
      "inputs": [
        {
          "internalType": "address",
          "name": "from",
          "type": "address"
        },
        {
          "internalType": "address",
          "name": "to",
          "type": "address"
        },
        {
          "internalType": "uint256",
          "name": "value",
          "type": "uint256"
        }
      ],
      "name": "transferFrom",
      "outputs": [
        {
          "internalType": "bool",
          "name": "",
          "type": "bool"
        }
      ],
      "stateMutability": "nonpayable",
      "type": "function"
    },
    {
      "inputs": [
        {
          "internalType": "address",
          "name": "newOwner",
          "type": "address"
        }
      ],
      "name": "transferOwnership",
      "outputs": [],
      "stateMutability": "nonpayable",
      "type": "function"
    }
  ],
  "bytecode": "0x60806040526000600860006101000a81548160ff0219169083151502179055503480156200002c57600080fd5b506040516200219d3803806200219d83398181016040528101906200005291906200071e565b858585816003908162000066919062000a39565b50806004908162000078919062000a39565b505050600073ffffffffffffffffffffffffffffffffffffffff168173ffffffffffffffffffffffffffffffffffffffff1603620000f05760006040517f1e4fbdf7000000000000000000000000000000000000000000000000000000008152600401620000e7919062000b31565b60405180910390fd5b62000101816200016860201b60201c565b5082600660006101000a81548173ffffffffffffffffffffffffffffffffffffffff021916908373ffffffffffffffffffffffffffffffffffffffff160217905550816007819055506200015c86826200022e60201b60201c565b50505050505062000c23565b6000600560009054906101000a900473ffffffffffffffffffffffffffffffffffffffff16905081600560006101000a81548173ffffffffffffffffffffffffffffffffffffffff021916908373ffffffffffffffffffffffffffffffffffffffff1602179055508173ffffffffffffffffffffffffffffffffffffffff168173ffffffffffffffffffffffffffffffffffffffff167f8be0079c531659141344cd1fd0a4f28419497f9722a3daafe3b4186f6b6457e060405160405180910390a35050565b600073ffffffffffffffffffffffffffffffffffffffff168273ffffffffffffffffffffffffffffffffffffffff1603620002a35760006040517fec442f050000000000000000000000000000000000000000000000000000000081526004016200029a919062000b31565b60405180910390fd5b620002b760008383620002bb60201b60201c565b5050565b600073ffffffffffffffffffffffffffffffffffffffff168373ffffffffffffffffffffffffffffffffffffffff16036200031157806002600082825462000304919062000b7d565b92505081905550620003e7565b60008060008573ffffffffffffffffffffffffffffffffffffffff1673ffffffffffffffffffffffffffffffffffffffff16815260200190815260200160002054905081811015620003a0578381836040517fe450d38c000000000000000000000000000000000000000000000000000000008152600401620003979392919062000bc9565b60405180910390fd5b8181036000808673ffffffffffffffffffffffffffffffffffffffff1673ffffffffffffffffffffffffffffffffffffffff16815260200190815260200160002081905550505b600073ffffffffffffffffffffffffffffffffffffffff168273ffffffffffffffffffffffffffffffffffffffff16036200043257806002600082825403925050819055506200047f565b806000808473ffffffffffffffffffffffffffffffffffffffff1673ffffffffffffffffffffffffffffffffffffffff168152602001908152602001600020600082825401925050819055505b8173ffffffffffffffffffffffffffffffffffffffff168373ffffffffffffffffffffffffffffffffffffffff167fddf252ad1be2c89b69c2b068fc378daa952ba7f163c4a11628f55a4df523b3ef83604051620004de919062000c06565b60405180910390a3505050565b6000604051905090565b600080fd5b600080fd5b600073ffffffffffffffffffffffffffffffffffffffff82169050919050565b60006200052c82620004ff565b9050919050565b6200053e816200051f565b81146200054a57600080fd5b50565b6000815190506200055e8162000533565b92915050565b600080fd5b600080fd5b6000601f19601f8301169050919050565b7f4e487b7100000000000000000000000000000000000000000000000000000000600052604160045260246000fd5b620005b9826200056e565b810181811067ffffffffffffffff82111715620005db57620005da6200057f565b5b80604052505050565b6000620005f0620004eb565b9050620005fe8282620005ae565b919050565b600067ffffffffffffffff8211156200062157620006206200057f565b5b6200062c826200056e565b9050602081019050919050565b60005b83811015620006595780820151818401526020810190506200063c565b60008484015250505050565b60006200067c620006768462000603565b620005e4565b9050828152602081018484840111156200069b576200069a62000569565b5b620006a884828562000639565b509392505050565b600082601f830112620006c857620006c762000564565b5b8151620006da84826020860162000665565b91505092915050565b6000819050919050565b620006f881620006e3565b81146200070457600080fd5b50565b6000815190506200071881620006ed565b92915050565b60008060008060008060c087890312156200073e576200073d620004f5565b5b60006200074e89828a016200054d565b965050602087015167ffffffffffffffff811115620007725762000771620004fa565b5b6200078089828a01620006b0565b955050604087015167ffffffffffffffff811115620007a457620007a3620004fa565b5b620007b289828a01620006b0565b9450506060620007c589828a016200054d565b9350506080620007d889828a0162000707565b92505060a0620007eb89828a0162000707565b9150509295509295509295565b600081519050919050565b7f4e487b7100000000000000000000000000000000000000000000000000000000600052602260045260246000fd5b600060028204905060018216806200084b57607f821691505b60208210810362000861576200086062000803565b5b50919050565b60008190508160005260206000209050919050565b60006020601f8301049050919050565b600082821b905092915050565b600060088302620008cb7fffffffffffffffffffffffffffffffffffffffffffffffffffffffffffffffff826200088c565b620008d786836200088c565b95508019841693508086168417925050509392505050565b6000819050919050565b60006200091a620009146200090e84620006e3565b620008ef565b620006e3565b9050919050565b6000819050919050565b6200093683620008f9565b6200094e620009458262000921565b84845462000899565b825550505050565b600090565b6200096562000956565b620009728184846200092b565b505050565b5b818110156200099a576200098e6000826200095b565b60018101905062000978565b5050565b601f821115620009e957620009b38162000867565b620009be846200087c565b81016020851015620009ce578190505b620009e6620009dd856200087c565b83018262000977565b50505b505050565b600082821c905092915050565b600062000a0e60001984600802620009ee565b1980831691505092915050565b600062000a298383620009fb565b9150826002028217905092915050565b62000a4482620007f8565b67ffffffffffffffff81111562000a605762000a5f6200057f565b5b62000a6c825462000832565b62000a798282856200099e565b600060209050601f83116001811462000ab1576000841562000a9c578287015190505b62000aa8858262000a1b565b86555062000b18565b601f19841662000ac18662000867565b60005b8281101562000aeb5784890151825560018201915060208501945060208101905062000ac4565b8683101562000b0b578489015162000b07601f891682620009fb565b8355505b6001600288020188555050505b505050505050565b62000b2b816200051f565b82525050565b600060208201905062000b48600083018462000b20565b92915050565b7f4e487b7100000000000000000000000000000000000000000000000000000000600052601160045260246000fd5b600062000b8a82620006e3565b915062000b9783620006e3565b925082820190508082111562000bb25762000bb162000b4e565b5b92915050565b62000bc381620006e3565b82525050565b600060608201905062000be0600083018662000b20565b62000bef602083018562000bb8565b62000bfe604083018462000bb8565b949350505050565b600060208201905062000c1d600083018462000bb8565b92915050565b61156a8062000c336000396000f3fe608060405234801561001057600080fd5b50600436106101005760003560e01c80638da5cb5b11610097578063db006a7511610066578063db006a75146102a1578063dd62ed3e146102bd578063e231bff0146102ed578063f2fde38b1461030b57610100565b80638da5cb5b1461021757806395d89b4114610235578063a9059cbb14610253578063d56d229d1461028357610100565b8063313ce567116100d3578063313ce567146101a157806370a08231146101bf578063715018a6146101ef5780637e830574146101f957610100565b806306fdde0314610105578063095ea7b31461012357806318160ddd1461015357806323b872dd14610171575b600080fd5b61010d610327565b60405161011a9190611008565b60405180910390f35b61013d600480360381019061013891906110c3565b6103b9565b60405161014a919061111e565b60405180910390f35b61015b6103dc565b6040516101689190611148565b60405180910390f35b61018b60048036038101906101869190611163565b6103e6565b604051610198919061111e565b60405180910390f35b6101a9610415565b6040516101b691906111d2565b60405180910390f35b6101d960048036038101906101d491906111ed565b61041e565b6040516101e69190611148565b60405180910390f35b6101f7610466565b005b61020161047a565b60405161020e9190611148565b60405180910390f35b61021f610480565b60405161022c9190611229565b60405180910390f35b61023d6104aa565b60405161024a9190611008565b60405180910390f35b61026d600480360381019061026891906110c3565b61053c565b60405161027a919061111e565b60405180910390f35b61028b61055f565b60405161029891906112a3565b60405180910390f35b6102bb60048036038101906102b691906112be565b610585565b005b6102d760048036038101906102d291906112eb565b6106eb565b6040516102e49190611148565b60405180910390f35b6102f5610772565b604051610302919061111e565b60405180910390f35b610325600480360381019061032091906111ed565b610785565b005b6060600380546103369061135a565b80601f01602080910402602001604051908101604052809291908181526020018280546103629061135a565b80156103af5780601f10610384576101008083540402835291602001916103af565b820191906000526020600020905b81548152906001019060200180831161039257829003601f168201915b5050505050905090565b6000806103c461080b565b90506103d1818585610813565b600191505092915050565b6000600254905090565b6000806103f161080b565b90506103fe858285610825565b6104098585856108b9565b60019150509392505050565b60006012905090565b60008060008373ffffffffffffffffffffffffffffffffffffffff1673ffffffffffffffffffffffffffffffffffffffff168152602001908152602001600020549050919050565b61046e6109ad565b6104786000610a34565b565b60075481565b6000600560009054906101000a900473ffffffffffffffffffffffffffffffffffffffff16905090565b6060600480546104b99061135a565b80601f01602080910402602001604051908101604052809291908181526020018280546104e59061135a565b80156105325780601f1061050757610100808354040283529160200191610532565b820191906000526020600020905b81548152906001019060200180831161051557829003601f168201915b5050505050905090565b60008061054761080b565b90506105548185856108b9565b600191505092915050565b600660009054906101000a900473ffffffffffffffffffffffffffffffffffffffff1681565b600860009054906101000a900460ff16156105d5576040517f08c379a00000000000000000000000000000000000000000000000000000000081526004016105cc906113d7565b60405180910390fd5b806105df3361041e565b1015610620576040517f08c379a000000000000000000000000000000000000000000000000000000000815260040161061790611443565b60405180910390fd5b61062a3382610afa565b60006106346103dc565b036106e8576001600860006101000a81548160ff021916908315150217905550600660009054906101000a900473ffffffffffffffffffffffffffffffffffffffff1673ffffffffffffffffffffffffffffffffffffffff166323b872dd30336007546040518463ffffffff1660e01b81526004016106b593929190611463565b600060405180830381600087803b1580156106cf57600080fd5b505af11580156106e3573d6000803e3d6000fd5b505050505b50565b6000600160008473ffffffffffffffffffffffffffffffffffffffff1673ffffffffffffffffffffffffffffffffffffffff16815260200190815260200160002060008373ffffffffffffffffffffffffffffffffffffffff1673ffffffffffffffffffffffffffffffffffffffff16815260200190815260200160002054905092915050565b600860009054906101000a900460ff1681565b61078d6109ad565b600073ffffffffffffffffffffffffffffffffffffffff168173ffffffffffffffffffffffffffffffffffffffff16036107ff5760006040517f1e4fbdf70000000000000000000000000000000000000000000000000000000081526004016107f69190611229565b60405180910390fd5b61080881610a34565b50565b600033905090565b6108208383836001610b7c565b505050565b600061083184846106eb565b90507fffffffffffffffffffffffffffffffffffffffffffffffffffffffffffffffff81146108b357818110156108a3578281836040517ffb8f41b200000000000000000000000000000000000000000000000000000000815260040161089a9392919061149a565b60405180910390fd5b6108b284848484036000610b7c565b5b50505050565b600073ffffffffffffffffffffffffffffffffffffffff168373ffffffffffffffffffffffffffffffffffffffff160361092b5760006040517f96c6fd1e0000000000000000000000000000000000000000000000000000000081526004016109229190611229565b60405180910390fd5b600073ffffffffffffffffffffffffffffffffffffffff168273ffffffffffffffffffffffffffffffffffffffff160361099d5760006040517fec442f050000000000000000000000000000000000000000000000000000000081526004016109949190611229565b60405180910390fd5b6109a8838383610d53565b505050565b6109b561080b565b73ffffffffffffffffffffffffffffffffffffffff166109d3610480565b73ffffffffffffffffffffffffffffffffffffffff1614610a32576109f661080b565b6040517f118cdaa7000000000000000000000000000000000000000000000000000000008152600401610a299190611229565b60405180910390fd5b565b6000600560009054906101000a900473ffffffffffffffffffffffffffffffffffffffff16905081600560006101000a81548173ffffffffffffffffffffffffffffffffffffffff021916908373ffffffffffffffffffffffffffffffffffffffff1602179055508173ffffffffffffffffffffffffffffffffffffffff168173ffffffffffffffffffffffffffffffffffffffff167f8be0079c531659141344cd1fd0a4f28419497f9722a3daafe3b4186f6b6457e060405160405180910390a35050565b600073ffffffffffffffffffffffffffffffffffffffff168273ffffffffffffffffffffffffffffffffffffffff1603610b6c5760006040517f96c6fd1e000000000000000000000000000000000000000000000000000000008152600401610b639190611229565b60405180910390fd5b610b7882600083610d53565b5050565b600073ffffffffffffffffffffffffffffffffffffffff168473ffffffffffffffffffffffffffffffffffffffff1603610bee5760006040517fe602df05000000000000000000000000000000000000000000000000000000008152600401610be59190611229565b60405180910390fd5b600073ffffffffffffffffffffffffffffffffffffffff168373ffffffffffffffffffffffffffffffffffffffff1603610c605760006040517f94280d62000000000000000000000000000000000000000000000000000000008152600401610c579190611229565b60405180910390fd5b81600160008673ffffffffffffffffffffffffffffffffffffffff1673ffffffffffffffffffffffffffffffffffffffff16815260200190815260200160002060008573ffffffffffffffffffffffffffffffffffffffff1673ffffffffffffffffffffffffffffffffffffffff168152602001908152602001600020819055508015610d4d578273ffffffffffffffffffffffffffffffffffffffff168473ffffffffffffffffffffffffffffffffffffffff167f8c5be1e5ebec7d5bd14f71427d1e84f3dd0314c0f7b2291e5b200ac8c7c3b92584604051610d449190611148565b60405180910390a35b50505050565b600073ffffffffffffffffffffffffffffffffffffffff168373ffffffffffffffffffffffffffffffffffffffff1603610da5578060026000828254610d999190611500565b92505081905550610e78565b60008060008573ffffffffffffffffffffffffffffffffffffffff1673ffffffffffffffffffffffffffffffffffffffff16815260200190815260200160002054905081811015610e31578381836040517fe450d38c000000000000000000000000000000000000000000000000000000008152600401610e289392919061149a565b60405180910390fd5b8181036000808673ffffffffffffffffffffffffffffffffffffffff1673ffffffffffffffffffffffffffffffffffffffff16815260200190815260200160002081905550505b600073ffffffffffffffffffffffffffffffffffffffff168273ffffffffffffffffffffffffffffffffffffffff1603610ec15780600260008282540392505081905550610f0e565b806000808473ffffffffffffffffffffffffffffffffffffffff1673ffffffffffffffffffffffffffffffffffffffff168152602001908152602001600020600082825401925050819055505b8173ffffffffffffffffffffffffffffffffffffffff168373ffffffffffffffffffffffffffffffffffffffff167fddf252ad1be2c89b69c2b068fc378daa952ba7f163c4a11628f55a4df523b3ef83604051610f6b9190611148565b60405180910390a3505050565b600081519050919050565b600082825260208201905092915050565b60005b83811015610fb2578082015181840152602081019050610f97565b60008484015250505050565b6000601f19601f8301169050919050565b6000610fda82610f78565b610fe48185610f83565b9350610ff4818560208601610f94565b610ffd81610fbe565b840191505092915050565b600060208201905081810360008301526110228184610fcf565b905092915050565b600080fd5b600073ffffffffffffffffffffffffffffffffffffffff82169050919050565b600061105a8261102f565b9050919050565b61106a8161104f565b811461107557600080fd5b50565b60008135905061108781611061565b92915050565b6000819050919050565b6110a08161108d565b81146110ab57600080fd5b50565b6000813590506110bd81611097565b92915050565b600080604083850312156110da576110d961102a565b5b60006110e885828601611078565b92505060206110f9858286016110ae565b9150509250929050565b60008115159050919050565b61111881611103565b82525050565b6000602082019050611133600083018461110f565b92915050565b6111428161108d565b82525050565b600060208201905061115d6000830184611139565b92915050565b60008060006060848603121561117c5761117b61102a565b5b600061118a86828701611078565b935050602061119b86828701611078565b92505060406111ac868287016110ae565b9150509250925092565b600060ff82169050919050565b6111cc816111b6565b82525050565b60006020820190506111e760008301846111c3565b92915050565b6000602082840312156112035761120261102a565b5b600061121184828501611078565b91505092915050565b6112238161104f565b82525050565b600060208201905061123e600083018461121a565b92915050565b6000819050919050565b600061126961126461125f8461102f565b611244565b61102f565b9050919050565b600061127b8261124e565b9050919050565b600061128d82611270565b9050919050565b61129d81611282565b82525050565b60006020820190506112b86000830184611294565b92915050565b6000602082840312156112d4576112d361102a565b5b60006112e2848285016110ae565b91505092915050565b600080604083850312156113025761130161102a565b5b600061131085828601611078565b925050602061132185828601611078565b9150509250929050565b7f4e487b7100000000000000000000000000000000000000000000000000000000600052602260045260246000fd5b6000600282049050600182168061137257607f821691505b6020821081036113855761138461132b565b5b50919050565b7f4e465420616c72656164792072656465656d6564000000000000000000000000600082015250565b60006113c1601483610f83565b91506113cc8261138b565b602082019050919050565b600060208201905081810360008301526113f0816113b4565b9050919050565b7f4e6f7420656e6f75676820746f6b656e73000000000000000000000000000000600082015250565b600061142d601183610f83565b9150611438826113f7565b602082019050919050565b6000602082019050818103600083015261145c81611420565b9050919050565b6000606082019050611478600083018661121a565b611485602083018561121a565b6114926040830184611139565b949350505050565b60006060820190506114af600083018661121a565b6114bc6020830185611139565b6114c96040830184611139565b949350505050565b7f4e487b7100000000000000000000000000000000000000000000000000000000600052601160045260246000fd5b600061150b8261108d565b91506115168361108d565b925082820190508082111561152e5761152d6114d1565b5b9291505056fea264697066735822122025ec2f7dca14ada925259bd5630f9d464ad56c747b870ac15640fd4526a852ca64736f6c63430008150033",
  "linkReferences": {},
  "deployedLinkReferences": {}
}