{
  "_format": "hh-sol-artifact-1",
  "contractName": "MemeNFT",
  "sourceName": "contracts/MemeNFT.sol",
  "abi": [
    {
      "inputs": [
        {
          "internalType": "address",
          "name": "_initialOwner",
          "type": "address"
        }
      ],
      "stateMutability": "nonpayable",
      "type": "constructor"
    },
    {
      "inputs": [],
      "name": "ERC721EnumerableForbiddenBatchMint",
      "type": "error"
    },
    {
      "inputs": [
        {
          "internalType": "address",
          "name": "sender",
          "type": "address"
        },
        {
          "internalType": "uint256",
          "name": "tokenId",
          "type": "uint256"
        },
        {
          "internalType": "address",
          "name": "owner",
          "type": "address"
        }
      ],
      "name": "ERC721IncorrectOwner",
      "type": "error"
    },
    {
      "inputs": [
        {
          "internalType": "address",
          "name": "operator",
          "type": "address"
        },
        {
          "internalType": "uint256",
          "name": "tokenId",
          "type": "uint256"
        }
      ],
      "name": "ERC721InsufficientApproval",
      "type": "error"
    },
    {
      "inputs": [
        {
          "internalType": "address",
          "name": "approver",
          "type": "address"
        }
      ],
      "name": "ERC721InvalidApprover",
      "type": "error"
    },
    {
      "inputs": [
        {
          "internalType": "address",
          "name": "operator",
          "type": "address"
        }
      ],
      "name": "ERC721InvalidOperator",
      "type": "error"
    },
    {
      "inputs": [
        {
          "internalType": "address",
          "name": "owner",
          "type": "address"
        }
      ],
      "name": "ERC721InvalidOwner",
      "type": "error"
    },
    {
      "inputs": [
        {
          "internalType": "address",
          "name": "receiver",
          "type": "address"
        }
      ],
      "name": "ERC721InvalidReceiver",
      "type": "error"
    },
    {
      "inputs": [
        {
          "internalType": "address",
          "name": "sender",
          "type": "address"
        }
      ],
      "name": "ERC721InvalidSender",
      "type": "error"
    },
    {
      "inputs": [
        {
          "internalType": "uint256",
          "name": "tokenId",
          "type": "uint256"
        }
      ],
      "name": "ERC721NonexistentToken",
      "type": "error"
    },
    {
      "inputs": [
        {
          "internalType": "address",
          "name": "owner",
          "type": "address"
        },
        {
          "internalType": "uint256",
          "name": "index",
          "type": "uint256"
        }
      ],
      "name": "ERC721OutOfBoundsIndex",
      "type": "error"
    },
    {
      "inputs": [],
      "name": "MintNotAllowed",
      "type": "error"
    },
    {
      "inputs": [],
      "name": "NFTAlreadyFractionalized",
      "type": "error"
    },
    {
      "inputs": [],
      "name": "NotEnoughTokens",
      "type": "error"
    },
    {
      "inputs": [
        {
          "internalType": "address",
          "name": "owner",
          "type": "address"
        }
      ],
      "name": "OwnableInvalidOwner",
      "type": "error"
    },
    {
      "inputs": [
        {
          "internalType": "address",
          "name": "account",
          "type": "address"
        }
      ],
      "name": "OwnableUnauthorizedAccount",
      "type": "error"
    },
    {
      "anonymous": false,
      "inputs": [
        {
          "indexed": true,
          "internalType": "address",
          "name": "owner",
          "type": "address"
        },
        {
          "indexed": true,
          "internalType": "address",
          "name": "approved",
          "type": "address"
        },
        {
          "indexed": true,
          "internalType": "uint256",
          "name": "tokenId",
          "type": "uint256"
        }
      ],
      "name": "Approval",
      "type": "event"
    },
    {
      "anonymous": false,
      "inputs": [
        {
          "indexed": true,
          "internalType": "address",
          "name": "owner",
          "type": "address"
        },
        {
          "indexed": true,
          "internalType": "address",
          "name": "operator",
          "type": "address"
        },
        {
          "indexed": false,
          "internalType": "bool",
          "name": "approved",
          "type": "bool"
        }
      ],
      "name": "ApprovalForAll",
      "type": "event"
    },
    {
      "anonymous": false,
      "inputs": [
        {
          "indexed": false,
          "internalType": "uint256",
          "name": "_fromTokenId",
          "type": "uint256"
        },
        {
          "indexed": false,
          "internalType": "uint256",
          "name": "_toTokenId",
          "type": "uint256"
        }
      ],
      "name": "BatchMetadataUpdate",
      "type": "event"
    },
    {
      "anonymous": false,
      "inputs": [
        {
          "indexed": false,
          "internalType": "uint256",
          "name": "_tokenId",
          "type": "uint256"
        }
      ],
      "name": "MetadataUpdate",
      "type": "event"
    },
    {
      "anonymous": false,
      "inputs": [
        {
          "indexed": true,
          "internalType": "address",
          "name": "previousOwner",
          "type": "address"
        },
        {
          "indexed": true,
          "internalType": "address",
          "name": "newOwner",
          "type": "address"
        }
      ],
      "name": "OwnershipTransferred",
      "type": "event"
    },
    {
      "anonymous": false,
      "inputs": [
        {
          "indexed": true,
          "internalType": "address",
          "name": "from",
          "type": "address"
        },
        {
          "indexed": true,
          "internalType": "address",
          "name": "to",
          "type": "address"
        },
        {
          "indexed": true,
          "internalType": "uint256",
          "name": "tokenId",
          "type": "uint256"
        }
      ],
      "name": "Transfer",
      "type": "event"
    },
    {
      "inputs": [
        {
          "internalType": "address",
          "name": "to",
          "type": "address"
        },
        {
          "internalType": "uint256",
          "name": "tokenId",
          "type": "uint256"
        }
      ],
      "name": "approve",
      "outputs": [],
      "stateMutability": "nonpayable",
      "type": "function"
    },
    {
      "inputs": [
        {
          "internalType": "address",
          "name": "owner",
          "type": "address"
        }
      ],
      "name": "balanceOf",
      "outputs": [
        {
          "internalType": "uint256",
          "name": "",
          "type": "uint256"
        }
      ],
      "stateMutability": "view",
      "type": "function"
    },
    {
      "inputs": [
        {
          "internalType": "uint256",
          "name": "",
          "type": "uint256"
        }
      ],
      "name": "fractionalTokenContracts",
      "outputs": [
        {
          "internalType": "address",
          "name": "",
          "type": "address"
        }
      ],
      "stateMutability": "view",
      "type": "function"
    },
    {
      "inputs": [
        {
          "internalType": "uint256",
          "name": "nftTokenId",
          "type": "uint256"
        },
        {
          "internalType": "string",
          "name": "tokenName",
          "type": "string"
        },
        {
          "internalType": "string",
          "name": "tokenSymbol",
          "type": "string"
        },
        {
          "internalType": "uint256",
          "name": "totalSupply",
          "type": "uint256"
        }
      ],
      "name": "fractionalizeNFT",
      "outputs": [],
      "stateMutability": "nonpayable",
      "type": "function"
    },
    {
      "inputs": [
        {
          "internalType": "uint256",
          "name": "tokenId",
          "type": "uint256"
        }
      ],
      "name": "getApproved",
      "outputs": [
        {
          "internalType": "address",
          "name": "",
          "type": "address"
        }
      ],
      "stateMutability": "view",
      "type": "function"
    },
    {
      "inputs": [],
      "name": "getBaseURI",
      "outputs": [
        {
          "internalType": "string",
          "name": "",
          "type": "string"
        }
      ],
      "stateMutability": "view",
      "type": "function"
    },
    {
      "inputs": [],
      "name": "getMinter",
      "outputs": [
        {
          "internalType": "address",
          "name": "",
          "type": "address"
        }
      ],
      "stateMutability": "view",
      "type": "function"
    },
    {
      "inputs": [
        {
          "internalType": "address",
          "name": "owner",
          "type": "address"
        },
        {
          "internalType": "address",
          "name": "operator",
          "type": "address"
        }
      ],
      "name": "isApprovedForAll",
      "outputs": [
        {
          "internalType": "bool",
          "name": "",
          "type": "bool"
        }
      ],
      "stateMutability": "view",
      "type": "function"
    },
    {
      "inputs": [
        {
          "internalType": "uint256",
          "name": "jsonUri",
          "type": "uint256"
        },
        {
          "internalType": "address",
          "name": "to",
          "type": "address"
        }
      ],
      "name": "mint",
      "outputs": [],
      "stateMutability": "nonpayable",
      "type": "function"
    },
    {
      "inputs": [],
      "name": "name",
      "outputs": [
        {
          "internalType": "string",
          "name": "",
          "type": "string"
        }
      ],
      "stateMutability": "view",
      "type": "function"
    },
    {
      "inputs": [],
      "name": "owner",
      "outputs": [
        {
          "internalType": "address",
          "name": "",
          "type": "address"
        }
      ],
      "stateMutability": "view",
      "type": "function"
    },
    {
      "inputs": [
        {
          "internalType": "uint256",
          "name": "tokenId",
          "type": "uint256"
        }
      ],
      "name": "ownerOf",
      "outputs": [
        {
          "internalType": "address",
          "name": "",
          "type": "address"
        }
      ],
      "stateMutability": "view",
      "type": "function"
    },
    {
      "inputs": [],
      "name": "renounceOwnership",
      "outputs": [],
      "stateMutability": "nonpayable",
      "type": "function"
    },
    {
      "inputs": [
        {
          "internalType": "address",
          "name": "from",
          "type": "address"
        },
        {
          "internalType": "address",
          "name": "to",
          "type": "address"
        },
        {
          "internalType": "uint256",
          "name": "tokenId",
          "type": "uint256"
        }
      ],
      "name": "safeTransferFrom",
      "outputs": [],
      "stateMutability": "nonpayable",
      "type": "function"
    },
    {
      "inputs": [
        {
          "internalType": "address",
          "name": "from",
          "type": "address"
        },
        {
          "internalType": "address",
          "name": "to",
          "type": "address"
        },
        {
          "internalType": "uint256",
          "name": "tokenId",
          "type": "uint256"
        },
        {
          "internalType": "bytes",
          "name": "data",
          "type": "bytes"
        }
      ],
      "name": "safeTransferFrom",
      "outputs": [],
      "stateMutability": "nonpayable",
      "type": "function"
    },
    {
      "inputs": [
        {
          "internalType": "address",
          "name": "operator",
          "type": "address"
        },
        {
          "internalType": "bool",
          "name": "approved",
          "type": "bool"
        }
      ],
      "name": "setApprovalForAll",
      "outputs": [],
      "stateMutability": "nonpayable",
      "type": "function"
    },
    {
      "inputs": [
        {
          "internalType": "string",
          "name": "newBaseURI",
          "type": "string"
        }
      ],
      "name": "setBaseURI",
      "outputs": [],
      "stateMutability": "nonpayable",
      "type": "function"
    },
    {
      "inputs": [
        {
          "internalType": "address",
          "name": "minter",
          "type": "address"
        }
      ],
      "name": "setMinter",
      "outputs": [],
      "stateMutability": "nonpayable",
      "type": "function"
    },
    {
      "inputs": [
        {
          "internalType": "bytes4",
          "name": "interfaceId",
          "type": "bytes4"
        }
      ],
      "name": "supportsInterface",
      "outputs": [
        {
          "internalType": "bool",
          "name": "",
          "type": "bool"
        }
      ],
      "stateMutability": "view",
      "type": "function"
    },
    {
      "inputs": [],
      "name": "symbol",
      "outputs": [
        {
          "internalType": "string",
          "name": "",
          "type": "string"
        }
      ],
      "stateMutability": "view",
      "type": "function"
    },
    {
      "inputs": [
        {
          "internalType": "uint256",
          "name": "index",
          "type": "uint256"
        }
      ],
      "name": "tokenByIndex",
      "outputs": [
        {
          "internalType": "uint256",
          "name": "",
          "type": "uint256"
        }
      ],
      "stateMutability": "view",
      "type": "function"
    },
    {
      "inputs": [
        {
          "internalType": "address",
          "name": "owner",
          "type": "address"
        },
        {
          "internalType": "uint256",
          "name": "index",
          "type": "uint256"
        }
      ],
      "name": "tokenOfOwnerByIndex",
      "outputs": [
        {
          "internalType": "uint256",
          "name": "",
          "type": "uint256"
        }
      ],
      "stateMutability": "view",
      "type": "function"
    },
    {
      "inputs": [
        {
          "internalType": "uint256",
          "name": "tokenId",
          "type": "uint256"
        }
      ],
      "name": "tokenURI",
      "outputs": [
        {
          "internalType": "string",
          "name": "",
          "type": "string"
        }
      ],
      "stateMutability": "view",
      "type": "function"
    },
    {
      "inputs": [],
      "name": "totalSupply",
      "outputs": [
        {
          "internalType": "uint256",
          "name": "",
          "type": "uint256"
        }
      ],
      "stateMutability": "view",
      "type": "function"
    },
    {
      "inputs": [
        {
          "internalType": "address",
          "name": "from",
          "type": "address"
        },
        {
          "internalType": "address",
          "name": "to",
          "type": "address"
        },
        {
          "internalType": "uint256",
          "name": "tokenId",
          "type": "uint256"
        }
      ],
      "name": "transferFrom",
      "outputs": [],
      "stateMutability": "nonpayable",
      "type": "function"
    },
    {
      "inputs": [
        {
          "internalType": "address",
          "name": "newOwner",
          "type": "address"
        }
      ],
      "name": "transferOwnership",
      "outputs": [],
      "stateMutability": "nonpayable",
      "type": "function"
    },
    {
      "inputs": [
        {
          "internalType": "uint256",
          "name": "tokenId",
          "type": "uint256"
        },
        {
          "internalType": "uint256",
          "name": "jsonUri",
          "type": "uint256"
        }
      ],
      "name": "updateTokenUri",
      "outputs": [],
      "stateMutability": "nonpayable",
      "type": "function"
    }
  ],
  "bytecode": "0x60806040523480156200001157600080fd5b506040516200623d3803806200623d833981810160405281019062000037919062000288565b806040518060400160405280600781526020017f4d656d654e4654000000000000000000000000000000000000000000000000008152506040518060400160405280600481526020017f4d4e4654000000000000000000000000000000000000000000000000000000008152508160009081620000b5919062000534565b508060019081620000c7919062000534565b505050600073ffffffffffffffffffffffffffffffffffffffff168173ffffffffffffffffffffffffffffffffffffffff16036200013f5760006040517f1e4fbdf70000000000000000000000000000000000000000000000000000000081526004016200013691906200062c565b60405180910390fd5b62000150816200015860201b60201c565b505062000649565b6000600b60009054906101000a900473ffffffffffffffffffffffffffffffffffffffff16905081600b60006101000a81548173ffffffffffffffffffffffffffffffffffffffff021916908373ffffffffffffffffffffffffffffffffffffffff1602179055508173ffffffffffffffffffffffffffffffffffffffff168173ffffffffffffffffffffffffffffffffffffffff167f8be0079c531659141344cd1fd0a4f28419497f9722a3daafe3b4186f6b6457e060405160405180910390a35050565b600080fd5b600073ffffffffffffffffffffffffffffffffffffffff82169050919050565b6000620002508262000223565b9050919050565b620002628162000243565b81146200026e57600080fd5b50565b600081519050620002828162000257565b92915050565b600060208284031215620002a157620002a06200021e565b5b6000620002b18482850162000271565b91505092915050565b600081519050919050565b7f4e487b7100000000000000000000000000000000000000000000000000000000600052604160045260246000fd5b7f4e487b7100000000000000000000000000000000000000000000000000000000600052602260045260246000fd5b600060028204905060018216806200033c57607f821691505b602082108103620003525762000351620002f4565b5b50919050565b60008190508160005260206000209050919050565b60006020601f8301049050919050565b600082821b905092915050565b600060088302620003bc7fffffffffffffffffffffffffffffffffffffffffffffffffffffffffffffffff826200037d565b620003c886836200037d565b95508019841693508086168417925050509392505050565b6000819050919050565b6000819050919050565b6000620004156200040f6200040984620003e0565b620003ea565b620003e0565b9050919050565b6000819050919050565b6200043183620003f4565b6200044962000440826200041c565b8484546200038a565b825550505050565b600090565b6200046062000451565b6200046d81848462000426565b505050565b5b8181101562000495576200048960008262000456565b60018101905062000473565b5050565b601f821115620004e457620004ae8162000358565b620004b9846200036d565b81016020851015620004c9578190505b620004e1620004d8856200036d565b83018262000472565b50505b505050565b600082821c905092915050565b60006200050960001984600802620004e9565b1980831691505092915050565b6000620005248383620004f6565b9150826002028217905092915050565b6200053f82620002ba565b67ffffffffffffffff8111156200055b576200055a620002c5565b5b62000567825462000323565b6200057482828562000499565b600060209050601f831160018114620005ac576000841562000597578287015190505b620005a3858262000516565b86555062000613565b601f198416620005bc8662000358565b60005b82811015620005e657848901518255600182019150602085019450602081019050620005bf565b8683101562000606578489015162000602601f891682620004f6565b8355505b6001600288020188555050505b505050505050565b620006268162000243565b82525050565b60006020820190506200064360008301846200061b565b92915050565b615be480620006596000396000f3fe60806040523480156200001157600080fd5b5060043610620001d25760003560e01c8063714c53981162000111578063a6c1b1dd11620000a5578063e985e9c5116200007b578063e985e9c5146200055d578063f2fde38b1462000593578063f366751714620005b3578063fca3b5aa14620005d557620001d2565b8063a6c1b1dd14620004e7578063b88d4fde1462000507578063c87b56dd146200052757620001d2565b80638da5cb5b11620000e75780638da5cb5b146200046357806394bf804d146200048557806395d89b4114620004a5578063a22cb46514620004c757620001d2565b8063714c53981462000415578063715018a61462000437578063724334c0146200044357620001d2565b80632f745c5911620001895780634f6ccce7116200015f5780634f6ccce7146200035357806355f804b314620003895780636352211e14620003a957806370a0823114620003df57620001d2565b80632f745c5914620002c75780633452641e14620002fd57806342842e0e146200033357620001d2565b806301ffc9a714620001d757806306fdde03146200020d578063081812fc146200022f578063095ea7b3146200026557806318160ddd146200028557806323b872dd14620002a7575b600080fd5b620001f56004803603810190620001ef919062002a84565b620005f5565b60405162000204919062002ad3565b60405180910390f35b620002176200061c565b60405162000226919062002b8a565b60405180910390f35b6200024d600480360381019062000247919062002be9565b620006b6565b6040516200025c919062002c60565b60405180910390f35b6200028360048036038101906200027d919062002cae565b620006d6565b005b6200028f620006f0565b6040516200029e919062002d06565b60405180910390f35b620002c56004803603810190620002bf919062002d23565b620006fd565b005b620002e56004803603810190620002df919062002cae565b62000809565b604051620002f4919062002d06565b60405180910390f35b6200031b600480360381019062000315919062002be9565b620008b7565b6040516200032a919062002c60565b60405180910390f35b6200035160048036038101906200034b919062002d23565b620008ea565b005b6200037160048036038101906200036b919062002be9565b6200090c565b60405162000380919062002d06565b60405180910390f35b620003a76004803603810190620003a1919062002ed0565b6200098a565b005b620003c76004803603810190620003c1919062002be9565b620009a9565b604051620003d6919062002c60565b60405180910390f35b620003fd6004803603810190620003f7919062002f21565b620009bd565b6040516200040c919062002d06565b60405180910390f35b6200041f62000a7a565b6040516200042e919062002b8a565b60405180910390f35b6200044162000b14565b005b6200046160048036038101906200045b919062002f53565b62000b2c565b005b6200046d62000cf9565b6040516200047c919062002c60565b60405180910390f35b620004a360048036038101906200049d919062003003565b62000d23565b005b620004af62000e94565b604051620004be919062002b8a565b60405180910390f35b620004e56004803603810190620004df91906200307b565b62000f2e565b005b620005056004803603810190620004ff9190620030c2565b62000f48565b005b6200052560048036038101906200051f9190620031bd565b62001092565b005b6200054560048036038101906200053f919062002be9565b620010b3565b60405162000554919062002b8a565b60405180910390f35b6200057b60048036038101906200057591906200324e565b620010c7565b6040516200058a919062002ad3565b60405180910390f35b620005b16004803603810190620005ab919062002f21565b6200115b565b005b620005bd620011e8565b604051620005cc919062002c60565b60405180910390f35b620005f36004803603810190620005ed919062002f21565b62001212565b005b6000620006028262001260565b806200061557506200061482620012dd565b5b9050919050565b6060600080546200062d90620032c4565b80601f01602080910402602001604051908101604052809291908181526020018280546200065b90620032c4565b8015620006ac5780601f106200068057610100808354040283529160200191620006ac565b820191906000526020600020905b8154815290600101906020018083116200068e57829003601f168201915b5050505050905090565b6000620006c38262001341565b50620006cf82620013ce565b9050919050565b620006ec8282620006e66200140b565b62001413565b5050565b6000600980549050905090565b600073ffffffffffffffffffffffffffffffffffffffff168273ffffffffffffffffffffffffffffffffffffffff1603620007725760006040517f64a0ae9200000000000000000000000000000000000000000000000000000000815260040162000769919062002c60565b60405180910390fd5b60006200078a8383620007846200140b565b62001427565b90508373ffffffffffffffffffffffffffffffffffffffff168173ffffffffffffffffffffffffffffffffffffffff161462000803578382826040517f64283d7b000000000000000000000000000000000000000000000000000000008152600401620007fa93929190620032f9565b60405180910390fd5b50505050565b60006200081683620009bd565b82106200085e5782826040517fa57d13dc0000000000000000000000000000000000000000000000000000000081526004016200085592919062003336565b60405180910390fd5b600760008473ffffffffffffffffffffffffffffffffffffffff1673ffffffffffffffffffffffffffffffffffffffff168152602001908152602001600020600083815260200190815260200160002054905092915050565b600f6020528060005260406000206000915054906101000a900473ffffffffffffffffffffffffffffffffffffffff1681565b620009078383836040518060200160405280600081525062001092565b505050565b600062000918620006f0565b821062000961576000826040517fa57d13dc0000000000000000000000000000000000000000000000000000000081526004016200095892919062003336565b60405180910390fd5b6009828154811062000978576200097762003363565b5b90600052602060002001549050919050565b620009946200143f565b80600d9081620009a5919062003564565b5050565b6000620009b68262001341565b9050919050565b60008073ffffffffffffffffffffffffffffffffffffffff168273ffffffffffffffffffffffffffffffffffffffff160362000a335760006040517f89c62b6400000000000000000000000000000000000000000000000000000000815260040162000a2a919062002c60565b60405180910390fd5b600360008373ffffffffffffffffffffffffffffffffffffffff1673ffffffffffffffffffffffffffffffffffffffff168152602001908152602001600020549050919050565b6060600d805462000a8b90620032c4565b80601f016020809104026020016040519081016040528092919081815260200182805462000ab990620032c4565b801562000b0a5780601f1062000ade5761010080835404028352916020019162000b0a565b820191906000526020600020905b81548152906001019060200180831162000aec57829003601f168201915b5050505050905090565b62000b1e6200143f565b62000b2a6000620014cf565b565b3373ffffffffffffffffffffffffffffffffffffffff1662000b4e85620009a9565b73ffffffffffffffffffffffffffffffffffffffff161462000ba7576040517f08c379a000000000000000000000000000000000000000000000000000000000815260040162000b9e906200369b565b60405180910390fd5b600073ffffffffffffffffffffffffffffffffffffffff16600f600086815260200190815260200160002060009054906101000a900473ffffffffffffffffffffffffffffffffffffffff1673ffffffffffffffffffffffffffffffffffffffff161462000c4c576040517f08c379a000000000000000000000000000000000000000000000000000000000815260040162000c43906200370d565b60405180910390fd5b600033848430888660405162000c629062002a05565b62000c73969594939291906200372f565b604051809103906000f08015801562000c90573d6000803e3d6000fd5b50905080600f600087815260200190815260200160002060006101000a81548173ffffffffffffffffffffffffffffffffffffffff021916908373ffffffffffffffffffffffffffffffffffffffff16021790555062000cf2338287620006fd565b5050505050565b6000600b60009054906101000a900473ffffffffffffffffffffffffffffffffffffffff16905090565b600c60009054906101000a900473ffffffffffffffffffffffffffffffffffffffff1673ffffffffffffffffffffffffffffffffffffffff163373ffffffffffffffffffffffffffffffffffffffff161415801562000db7575062000d8762000cf9565b73ffffffffffffffffffffffffffffffffffffffff163373ffffffffffffffffffffffffffffffffffffffff1614155b1562000def576040517f344fa43b00000000000000000000000000000000000000000000000000000000815260040160405180910390fd5b6001600e5462000e009190620037d9565b600e8190555062000e1481600e5462001595565b60006040518060400160405280600581526020017f2e6a736f6e0000000000000000000000000000000000000000000000000000008152509050600062000e5b8462001696565b8260405160200162000e6f92919062003856565b604051602081830303815290604052905062000e8e600e54826200176f565b50505050565b60606001805462000ea590620032c4565b80601f016020809104026020016040519081016040528092919081815260200182805462000ed390620032c4565b801562000f245780601f1062000ef85761010080835404028352916020019162000f24565b820191906000526020600020905b81548152906001019060200180831162000f0657829003601f168201915b5050505050905090565b62000f4462000f3c6200140b565b8383620017cf565b5050565b600c60009054906101000a900473ffffffffffffffffffffffffffffffffffffffff1673ffffffffffffffffffffffffffffffffffffffff163373ffffffffffffffffffffffffffffffffffffffff161415801562000fdc575062000fac62000cf9565b73ffffffffffffffffffffffffffffffffffffffff163373ffffffffffffffffffffffffffffffffffffffff1614155b1562001014576040517f344fa43b00000000000000000000000000000000000000000000000000000000815260040160405180910390fd5b60006040518060400160405280600581526020017f2e6a736f6e000000000000000000000000000000000000000000000000000000815250905060006200105b8362001696565b826040516020016200106f92919062003856565b60405160208183030381529060405290506200108c84826200176f565b50505050565b6200109f848484620006fd565b620010ad8484848462001943565b50505050565b6060620010c08262001b0b565b9050919050565b6000600560008473ffffffffffffffffffffffffffffffffffffffff1673ffffffffffffffffffffffffffffffffffffffff16815260200190815260200160002060008373ffffffffffffffffffffffffffffffffffffffff1673ffffffffffffffffffffffffffffffffffffffff16815260200190815260200160002060009054906101000a900460ff16905092915050565b620011656200143f565b600073ffffffffffffffffffffffffffffffffffffffff168173ffffffffffffffffffffffffffffffffffffffff1603620011da5760006040517f1e4fbdf7000000000000000000000000000000000000000000000000000000008152600401620011d1919062002c60565b60405180910390fd5b620011e581620014cf565b50565b6000600c60009054906101000a900473ffffffffffffffffffffffffffffffffffffffff16905090565b6200121c6200143f565b80600c60006101000a81548173ffffffffffffffffffffffffffffffffffffffff021916908373ffffffffffffffffffffffffffffffffffffffff16021790555050565b60007f780e9d63000000000000000000000000000000000000000000000000000000007bffffffffffffffffffffffffffffffffffffffffffffffffffffffff1916827bffffffffffffffffffffffffffffffffffffffffffffffffffffffff19161480620012d65750620012d582620012dd565b5b9050919050565b6000634906490660e01b7bffffffffffffffffffffffffffffffffffffffffffffffffffffffff1916827bffffffffffffffffffffffffffffffffffffffffffffffffffffffff191614806200133a5750620013398262001c32565b5b9050919050565b6000806200134f8362001d18565b9050600073ffffffffffffffffffffffffffffffffffffffff168173ffffffffffffffffffffffffffffffffffffffff1603620013c557826040517f7e273289000000000000000000000000000000000000000000000000000000008152600401620013bc919062002d06565b60405180910390fd5b80915050919050565b60006004600083815260200190815260200160002060009054906101000a900473ffffffffffffffffffffffffffffffffffffffff169050919050565b600033905090565b62001422838383600162001d55565b505050565b60006200143684848462001f26565b90509392505050565b620014496200140b565b73ffffffffffffffffffffffffffffffffffffffff166200146962000cf9565b73ffffffffffffffffffffffffffffffffffffffff1614620014cd576200148f6200140b565b6040517f118cdaa7000000000000000000000000000000000000000000000000000000008152600401620014c4919062002c60565b60405180910390fd5b565b6000600b60009054906101000a900473ffffffffffffffffffffffffffffffffffffffff16905081600b60006101000a81548173ffffffffffffffffffffffffffffffffffffffff021916908373ffffffffffffffffffffffffffffffffffffffff1602179055508173ffffffffffffffffffffffffffffffffffffffff168173ffffffffffffffffffffffffffffffffffffffff167f8be0079c531659141344cd1fd0a4f28419497f9722a3daafe3b4186f6b6457e060405160405180910390a35050565b600073ffffffffffffffffffffffffffffffffffffffff168273ffffffffffffffffffffffffffffffffffffffff16036200160a5760006040517f64a0ae9200000000000000000000000000000000000000000000000000000000815260040162001601919062002c60565b60405180910390fd5b60006200161a8383600062001427565b9050600073ffffffffffffffffffffffffffffffffffffffff168173ffffffffffffffffffffffffffffffffffffffff1614620016915760006040517f73c6ac6e00000000000000000000000000000000000000000000000000000000815260040162001688919062002c60565b60405180910390fd5b505050565b606060006001620016a78462002053565b01905060008167ffffffffffffffff811115620016c957620016c862002d89565b5b6040519080825280601f01601f191660200182016040528015620016fc5781602001600182028036833780820191505090505b509050600082602001820190505b60011562001764578080600190039150507f3031323334353637383961626364656600000000000000000000000000000000600a86061a8153600a85816200175757620017566200387e565b5b049450600085036200170a575b819350505050919050565b8060066000848152602001908152602001600020908162001791919062003564565b507ff8e1a15aba9398e019f0b49df1a4fde98ee17ae345cb5f6b5e2c27f5033e8ce782604051620017c3919062002d06565b60405180910390a15050565b600073ffffffffffffffffffffffffffffffffffffffff168273ffffffffffffffffffffffffffffffffffffffff16036200184357816040517f5b08ba180000000000000000000000000000000000000000000000000000000081526004016200183a919062002c60565b60405180910390fd5b80600560008573ffffffffffffffffffffffffffffffffffffffff1673ffffffffffffffffffffffffffffffffffffffff16815260200190815260200160002060008473ffffffffffffffffffffffffffffffffffffffff1673ffffffffffffffffffffffffffffffffffffffff16815260200190815260200160002060006101000a81548160ff0219169083151502179055508173ffffffffffffffffffffffffffffffffffffffff168373ffffffffffffffffffffffffffffffffffffffff167f17307eab39ab6107e8899845ad3d59bd9653f200f220920489ca2b5937696c318360405162001936919062002ad3565b60405180910390a3505050565b60008373ffffffffffffffffffffffffffffffffffffffff163b111562001b05578273ffffffffffffffffffffffffffffffffffffffff1663150b7a026200198a6200140b565b8685856040518563ffffffff1660e01b8152600401620019ae94939291906200390a565b6020604051808303816000875af1925050508015620019ed57506040513d601f19601f82011682018060405250810190620019ea919062003975565b60015b62001a77573d806000811462001a20576040519150601f19603f3d011682016040523d82523d6000602084013e62001a25565b606091505b50600081510362001a6f57836040517f64a0ae9200000000000000000000000000000000000000000000000000000000815260040162001a66919062002c60565b60405180910390fd5b805181602001fd5b63150b7a0260e01b7bffffffffffffffffffffffffffffffffffffffffffffffffffffffff1916817bffffffffffffffffffffffffffffffffffffffffffffffffffffffff19161462001b0357836040517f64a0ae9200000000000000000000000000000000000000000000000000000000815260040162001afa919062002c60565b60405180910390fd5b505b50505050565b606062001b188262001341565b50600060066000848152602001908152602001600020805462001b3b90620032c4565b80601f016020809104026020016040519081016040528092919081815260200182805462001b6990620032c4565b801562001bba5780601f1062001b8e5761010080835404028352916020019162001bba565b820191906000526020600020905b81548152906001019060200180831162001b9c57829003601f168201915b50505050509050600062001bcd620021bf565b9050600081510362001be457819250505062001c2d565b60008251111562001c1d57808260405160200162001c0492919062003856565b6040516020818303038152906040529250505062001c2d565b62001c288462002259565b925050505b919050565b60007f80ac58cd000000000000000000000000000000000000000000000000000000007bffffffffffffffffffffffffffffffffffffffffffffffffffffffff1916827bffffffffffffffffffffffffffffffffffffffffffffffffffffffff1916148062001cfe57507f5b5e139f000000000000000000000000000000000000000000000000000000007bffffffffffffffffffffffffffffffffffffffffffffffffffffffff1916827bffffffffffffffffffffffffffffffffffffffffffffffffffffffff1916145b8062001d11575062001d1082620022cc565b5b9050919050565b60006002600083815260200190815260200160002060009054906101000a900473ffffffffffffffffffffffffffffffffffffffff169050919050565b808062001d8f5750600073ffffffffffffffffffffffffffffffffffffffff168273ffffffffffffffffffffffffffffffffffffffff1614155b1562001ece57600062001da28462001341565b9050600073ffffffffffffffffffffffffffffffffffffffff168373ffffffffffffffffffffffffffffffffffffffff161415801562001e0e57508273ffffffffffffffffffffffffffffffffffffffff168173ffffffffffffffffffffffffffffffffffffffff1614155b801562001e24575062001e228184620010c7565b155b1562001e6957826040517fa9fbf51f00000000000000000000000000000000000000000000000000000000815260040162001e60919062002c60565b60405180910390fd5b811562001ecc57838573ffffffffffffffffffffffffffffffffffffffff168273ffffffffffffffffffffffffffffffffffffffff167f8c5be1e5ebec7d5bd14f71427d1e84f3dd0314c0f7b2291e5b200ac8c7c3b92560405160405180910390a45b505b836004600085815260200190815260200160002060006101000a81548173ffffffffffffffffffffffffffffffffffffffff021916908373ffffffffffffffffffffffffffffffffffffffff16021790555050505050565b60008062001f3685858562002336565b9050600073ffffffffffffffffffffffffffffffffffffffff168173ffffffffffffffffffffffffffffffffffffffff160362001f7e5762001f788462002559565b62001fc0565b8473ffffffffffffffffffffffffffffffffffffffff168173ffffffffffffffffffffffffffffffffffffffff161462001fbf5762001fbe8185620025a2565b5b5b600073ffffffffffffffffffffffffffffffffffffffff168573ffffffffffffffffffffffffffffffffffffffff16036200200657620020008462002706565b62002048565b8473ffffffffffffffffffffffffffffffffffffffff168173ffffffffffffffffffffffffffffffffffffffff16146200204757620020468585620027e2565b5b5b809150509392505050565b600080600090507a184f03e93ff9f4daa797ed6e38ed64bf6a1f0100000000000000008310620020b5577a184f03e93ff9f4daa797ed6e38ed64bf6a1f0100000000000000008381620020ab57620020aa6200387e565b5b0492506040810190505b6d04ee2d6d415b85acef81000000008310620020f6576d04ee2d6d415b85acef81000000008381620020ec57620020eb6200387e565b5b0492506020810190505b662386f26fc1000083106200212957662386f26fc1000083816200211f576200211e6200387e565b5b0492506010810190505b6305f5e100831062002156576305f5e10083816200214c576200214b6200387e565b5b0492506008810190505b61271083106200217f5761271083816200217557620021746200387e565b5b0492506004810190505b60648310620021a657606483816200219c576200219b6200387e565b5b0492506002810190505b600a8310620021b6576001810190505b80915050919050565b6060600d8054620021d090620032c4565b80601f0160208091040260200160405190810160405280929190818152602001828054620021fe90620032c4565b80156200224f5780601f1062002223576101008083540402835291602001916200224f565b820191906000526020600020905b8154815290600101906020018083116200223157829003601f168201915b5050505050905090565b6060620022668262001341565b50600062002273620021bf565b90506000815111620022955760405180602001604052806000815250620022c4565b80620022a18462001696565b604051602001620022b492919062003856565b6040516020818303038152906040525b915050919050565b60007f01ffc9a7000000000000000000000000000000000000000000000000000000007bffffffffffffffffffffffffffffffffffffffffffffffffffffffff1916827bffffffffffffffffffffffffffffffffffffffffffffffffffffffff1916149050919050565b600080620023448462001d18565b9050600073ffffffffffffffffffffffffffffffffffffffff168373ffffffffffffffffffffffffffffffffffffffff161462002389576200238881848662002871565b5b600073ffffffffffffffffffffffffffffffffffffffff168173ffffffffffffffffffffffffffffffffffffffff16146200241d57620023ce60008560008062001d55565b6001600360008373ffffffffffffffffffffffffffffffffffffffff1673ffffffffffffffffffffffffffffffffffffffff168152602001908152602001600020600082825403925050819055505b600073ffffffffffffffffffffffffffffffffffffffff168573ffffffffffffffffffffffffffffffffffffffff1614620024a1576001600360008773ffffffffffffffffffffffffffffffffffffffff1673ffffffffffffffffffffffffffffffffffffffff168152602001908152602001600020600082825401925050819055505b846002600086815260200190815260200160002060006101000a81548173ffffffffffffffffffffffffffffffffffffffff021916908373ffffffffffffffffffffffffffffffffffffffff160217905550838573ffffffffffffffffffffffffffffffffffffffff168273ffffffffffffffffffffffffffffffffffffffff167fddf252ad1be2c89b69c2b068fc378daa952ba7f163c4a11628f55a4df523b3ef60405160405180910390a4809150509392505050565b600980549050600a600083815260200190815260200160002081905550600981908060018154018082558091505060019003906000526020600020016000909190919091505550565b6000620025af83620009bd565b905060006008600084815260200190815260200160002054905081811462002695576000600760008673ffffffffffffffffffffffffffffffffffffffff1673ffffffffffffffffffffffffffffffffffffffff168152602001908152602001600020600084815260200190815260200160002054905080600760008773ffffffffffffffffffffffffffffffffffffffff1673ffffffffffffffffffffffffffffffffffffffff168152602001908152602001600020600084815260200190815260200160002081905550816008600083815260200190815260200160002081905550505b6008600084815260200190815260200160002060009055600760008573ffffffffffffffffffffffffffffffffffffffff1673ffffffffffffffffffffffffffffffffffffffff16815260200190815260200160002060008381526020019081526020016000206000905550505050565b600060016009805490506200271c9190620039a7565b90506000600a60008481526020019081526020016000205490506000600983815481106200274f576200274e62003363565b5b90600052602060002001549050806009838154811062002774576200277362003363565b5b906000526020600020018190555081600a600083815260200190815260200160002081905550600a6000858152602001908152602001600020600090556009805480620027c657620027c5620039e2565b5b6001900381819060005260206000200160009055905550505050565b60006001620027f184620009bd565b620027fd9190620039a7565b905081600760008573ffffffffffffffffffffffffffffffffffffffff1673ffffffffffffffffffffffffffffffffffffffff168152602001908152602001600020600083815260200190815260200160002081905550806008600084815260200190815260200160002081905550505050565b6200287e8383836200293d565b6200293857600073ffffffffffffffffffffffffffffffffffffffff168373ffffffffffffffffffffffffffffffffffffffff1603620028f757806040517f7e273289000000000000000000000000000000000000000000000000000000008152600401620028ee919062002d06565b60405180910390fd5b81816040517f177e802f0000000000000000000000000000000000000000000000000000000081526004016200292f92919062003336565b60405180910390fd5b505050565b60008073ffffffffffffffffffffffffffffffffffffffff168373ffffffffffffffffffffffffffffffffffffffff1614158015620029fc57508273ffffffffffffffffffffffffffffffffffffffff168473ffffffffffffffffffffffffffffffffffffffff161480620029ba5750620029b98484620010c7565b5b80620029fb57508273ffffffffffffffffffffffffffffffffffffffff16620029e383620013ce565b73ffffffffffffffffffffffffffffffffffffffff16145b5b90509392505050565b61219d8062003a1283390190565b6000604051905090565b600080fd5b600080fd5b60007fffffffff0000000000000000000000000000000000000000000000000000000082169050919050565b62002a5e8162002a27565b811462002a6a57600080fd5b50565b60008135905062002a7e8162002a53565b92915050565b60006020828403121562002a9d5762002a9c62002a1d565b5b600062002aad8482850162002a6d565b91505092915050565b60008115159050919050565b62002acd8162002ab6565b82525050565b600060208201905062002aea600083018462002ac2565b92915050565b600081519050919050565b600082825260208201905092915050565b60005b8381101562002b2c57808201518184015260208101905062002b0f565b60008484015250505050565b6000601f19601f8301169050919050565b600062002b568262002af0565b62002b62818562002afb565b935062002b7481856020860162002b0c565b62002b7f8162002b38565b840191505092915050565b6000602082019050818103600083015262002ba6818462002b49565b905092915050565b6000819050919050565b62002bc38162002bae565b811462002bcf57600080fd5b50565b60008135905062002be38162002bb8565b92915050565b60006020828403121562002c025762002c0162002a1d565b5b600062002c128482850162002bd2565b91505092915050565b600073ffffffffffffffffffffffffffffffffffffffff82169050919050565b600062002c488262002c1b565b9050919050565b62002c5a8162002c3b565b82525050565b600060208201905062002c77600083018462002c4f565b92915050565b62002c888162002c3b565b811462002c9457600080fd5b50565b60008135905062002ca88162002c7d565b92915050565b6000806040838503121562002cc85762002cc762002a1d565b5b600062002cd88582860162002c97565b925050602062002ceb8582860162002bd2565b9150509250929050565b62002d008162002bae565b82525050565b600060208201905062002d1d600083018462002cf5565b92915050565b60008060006060848603121562002d3f5762002d3e62002a1d565b5b600062002d4f8682870162002c97565b935050602062002d628682870162002c97565b925050604062002d758682870162002bd2565b9150509250925092565b600080fd5b600080fd5b7f4e487b7100000000000000000000000000000000000000000000000000000000600052604160045260246000fd5b62002dc38262002b38565b810181811067ffffffffffffffff8211171562002de55762002de462002d89565b5b80604052505050565b600062002dfa62002a13565b905062002e08828262002db8565b919050565b600067ffffffffffffffff82111562002e2b5762002e2a62002d89565b5b62002e368262002b38565b9050602081019050919050565b82818337600083830152505050565b600062002e6962002e638462002e0d565b62002dee565b90508281526020810184848401111562002e885762002e8762002d84565b5b62002e9584828562002e43565b509392505050565b600082601f83011262002eb55762002eb462002d7f565b5b813562002ec784826020860162002e52565b91505092915050565b60006020828403121562002ee95762002ee862002a1d565b5b600082013567ffffffffffffffff81111562002f0a5762002f0962002a22565b5b62002f188482850162002e9d565b91505092915050565b60006020828403121562002f3a5762002f3962002a1d565b5b600062002f4a8482850162002c97565b91505092915050565b6000806000806080858703121562002f705762002f6f62002a1d565b5b600062002f808782880162002bd2565b945050602085013567ffffffffffffffff81111562002fa45762002fa362002a22565b5b62002fb28782880162002e9d565b935050604085013567ffffffffffffffff81111562002fd65762002fd562002a22565b5b62002fe48782880162002e9d565b925050606062002ff78782880162002bd2565b91505092959194509250565b600080604083850312156200301d576200301c62002a1d565b5b60006200302d8582860162002bd2565b9250506020620030408582860162002c97565b9150509250929050565b620030558162002ab6565b81146200306157600080fd5b50565b60008135905062003075816200304a565b92915050565b6000806040838503121562003095576200309462002a1d565b5b6000620030a58582860162002c97565b9250506020620030b88582860162003064565b9150509250929050565b60008060408385031215620030dc57620030db62002a1d565b5b6000620030ec8582860162002bd2565b9250506020620030ff8582860162002bd2565b9150509250929050565b600067ffffffffffffffff82111562003127576200312662002d89565b5b620031328262002b38565b9050602081019050919050565b600062003156620031508462003109565b62002dee565b90508281526020810184848401111562003175576200317462002d84565b5b6200318284828562002e43565b509392505050565b600082601f830112620031a257620031a162002d7f565b5b8135620031b48482602086016200313f565b91505092915050565b60008060008060808587031215620031da57620031d962002a1d565b5b6000620031ea8782880162002c97565b9450506020620031fd8782880162002c97565b9350506040620032108782880162002bd2565b925050606085013567ffffffffffffffff81111562003234576200323362002a22565b5b62003242878288016200318a565b91505092959194509250565b6000806040838503121562003268576200326762002a1d565b5b6000620032788582860162002c97565b92505060206200328b8582860162002c97565b9150509250929050565b7f4e487b7100000000000000000000000000000000000000000000000000000000600052602260045260246000fd5b60006002820490506001821680620032dd57607f821691505b602082108103620032f357620032f262003295565b5b50919050565b600060608201905062003310600083018662002c4f565b6200331f602083018562002cf5565b6200332e604083018462002c4f565b949350505050565b60006040820190506200334d600083018562002c4f565b6200335c602083018462002cf5565b9392505050565b7f4e487b7100000000000000000000000000000000000000000000000000000000600052603260045260246000fd5b60008190508160005260206000209050919050565b60006020601f8301049050919050565b600082821b905092915050565b600060088302620033f67fffffffffffffffffffffffffffffffffffffffffffffffffffffffffffffffff82620033b7565b620034028683620033b7565b95508019841693508086168417925050509392505050565b6000819050919050565b6000620034456200343f620034398462002bae565b6200341a565b62002bae565b9050919050565b6000819050919050565b620034618362003424565b6200347962003470826200344c565b848454620033c4565b825550505050565b600090565b6200349062003481565b6200349d81848462003456565b505050565b5b81811015620034c557620034b960008262003486565b600181019050620034a3565b5050565b601f8211156200351457620034de8162003392565b620034e984620033a7565b81016020851015620034f9578190505b620035116200350885620033a7565b830182620034a2565b50505b505050565b600082821c905092915050565b6000620035396000198460080262003519565b1980831691505092915050565b600062003554838362003526565b9150826002028217905092915050565b6200356f8262002af0565b67ffffffffffffffff8111156200358b576200358a62002d89565b5b620035978254620032c4565b620035a4828285620034c9565b600060209050601f831160018114620035dc5760008415620035c7578287015190505b620035d3858262003546565b86555062003643565b601f198416620035ec8662003392565b60005b828110156200361657848901518255600182019150602085019450602081019050620035ef565b8683101562003636578489015162003632601f89168262003526565b8355505b6001600288020188555050505b505050505050565b7f4f6e6c7920746865206f776e65722063616e206672616374696f6e616c697a65600082015250565b60006200368360208362002afb565b915062003690826200364b565b602082019050919050565b60006020820190508181036000830152620036b68162003674565b9050919050565b7f4e465420616c7265616479206672616374696f6e616c697a6564000000000000600082015250565b6000620036f5601a8362002afb565b91506200370282620036bd565b602082019050919050565b600060208201905081810360008301526200372881620036e6565b9050919050565b600060c08201905062003746600083018962002c4f565b81810360208301526200375a818862002b49565b9050818103604083015262003770818762002b49565b905062003781606083018662002c4f565b62003790608083018562002cf5565b6200379f60a083018462002cf5565b979650505050505050565b7f4e487b7100000000000000000000000000000000000000000000000000000000600052601160045260246000fd5b6000620037e68262002bae565b9150620037f38362002bae565b92508282019050808211156200380e576200380d620037aa565b5b92915050565b600081905092915050565b60006200382c8262002af0565b62003838818562003814565b93506200384a81856020860162002b0c565b80840191505092915050565b60006200386482856200381f565b91506200387282846200381f565b91508190509392505050565b7f4e487b7100000000000000000000000000000000000000000000000000000000600052601260045260246000fd5b600081519050919050565b600082825260208201905092915050565b6000620038d682620038ad565b620038e28185620038b8565b9350620038f481856020860162002b0c565b620038ff8162002b38565b840191505092915050565b600060808201905062003921600083018762002c4f565b62003930602083018662002c4f565b6200393f604083018562002cf5565b8181036060830152620039538184620038c9565b905095945050505050565b6000815190506200396f8162002a53565b92915050565b6000602082840312156200398e576200398d62002a1d565b5b60006200399e848285016200395e565b91505092915050565b6000620039b48262002bae565b9150620039c18362002bae565b9250828203905081811115620039dc57620039db620037aa565b5b92915050565b7f4e487b7100000000000000000000000000000000000000000000000000000000600052603160045260246000fdfe60806040526000600860006101000a81548160ff0219169083151502179055503480156200002c57600080fd5b506040516200219d3803806200219d83398181016040528101906200005291906200071e565b858585816003908162000066919062000a39565b50806004908162000078919062000a39565b505050600073ffffffffffffffffffffffffffffffffffffffff168173ffffffffffffffffffffffffffffffffffffffff1603620000f05760006040517f1e4fbdf7000000000000000000000000000000000000000000000000000000008152600401620000e7919062000b31565b60405180910390fd5b62000101816200016860201b60201c565b5082600660006101000a81548173ffffffffffffffffffffffffffffffffffffffff021916908373ffffffffffffffffffffffffffffffffffffffff160217905550816007819055506200015c86826200022e60201b60201c565b50505050505062000c23565b6000600560009054906101000a900473ffffffffffffffffffffffffffffffffffffffff16905081600560006101000a81548173ffffffffffffffffffffffffffffffffffffffff021916908373ffffffffffffffffffffffffffffffffffffffff1602179055508173ffffffffffffffffffffffffffffffffffffffff168173ffffffffffffffffffffffffffffffffffffffff167f8be0079c531659141344cd1fd0a4f28419497f9722a3daafe3b4186f6b6457e060405160405180910390a35050565b600073ffffffffffffffffffffffffffffffffffffffff168273ffffffffffffffffffffffffffffffffffffffff1603620002a35760006040517fec442f050000000000000000000000000000000000000000000000000000000081526004016200029a919062000b31565b60405180910390fd5b620002b760008383620002bb60201b60201c565b5050565b600073ffffffffffffffffffffffffffffffffffffffff168373ffffffffffffffffffffffffffffffffffffffff16036200031157806002600082825462000304919062000b7d565b92505081905550620003e7565b60008060008573ffffffffffffffffffffffffffffffffffffffff1673ffffffffffffffffffffffffffffffffffffffff16815260200190815260200160002054905081811015620003a0578381836040517fe450d38c000000000000000000000000000000000000000000000000000000008152600401620003979392919062000bc9565b60405180910390fd5b8181036000808673ffffffffffffffffffffffffffffffffffffffff1673ffffffffffffffffffffffffffffffffffffffff16815260200190815260200160002081905550505b600073ffffffffffffffffffffffffffffffffffffffff168273ffffffffffffffffffffffffffffffffffffffff16036200043257806002600082825403925050819055506200047f565b806000808473ffffffffffffffffffffffffffffffffffffffff1673ffffffffffffffffffffffffffffffffffffffff168152602001908152602001600020600082825401925050819055505b8173ffffffffffffffffffffffffffffffffffffffff168373ffffffffffffffffffffffffffffffffffffffff167fddf252ad1be2c89b69c2b068fc378daa952ba7f163c4a11628f55a4df523b3ef83604051620004de919062000c06565b60405180910390a3505050565b6000604051905090565b600080fd5b600080fd5b600073ffffffffffffffffffffffffffffffffffffffff82169050919050565b60006200052c82620004ff565b9050919050565b6200053e816200051f565b81146200054a57600080fd5b50565b6000815190506200055e8162000533565b92915050565b600080fd5b600080fd5b6000601f19601f8301169050919050565b7f4e487b7100000000000000000000000000000000000000000000000000000000600052604160045260246000fd5b620005b9826200056e565b810181811067ffffffffffffffff82111715620005db57620005da6200057f565b5b80604052505050565b6000620005f0620004eb565b9050620005fe8282620005ae565b919050565b600067ffffffffffffffff8211156200062157620006206200057f565b5b6200062c826200056e565b9050602081019050919050565b60005b83811015620006595780820151818401526020810190506200063c565b60008484015250505050565b60006200067c620006768462000603565b620005e4565b9050828152602081018484840111156200069b576200069a62000569565b5b620006a884828562000639565b509392505050565b600082601f830112620006c857620006c762000564565b5b8151620006da84826020860162000665565b91505092915050565b6000819050919050565b620006f881620006e3565b81146200070457600080fd5b50565b6000815190506200071881620006ed565b92915050565b60008060008060008060c087890312156200073e576200073d620004f5565b5b60006200074e89828a016200054d565b965050602087015167ffffffffffffffff811115620007725762000771620004fa565b5b6200078089828a01620006b0565b955050604087015167ffffffffffffffff811115620007a457620007a3620004fa565b5b620007b289828a01620006b0565b9450506060620007c589828a016200054d565b9350506080620007d889828a0162000707565b92505060a0620007eb89828a0162000707565b9150509295509295509295565b600081519050919050565b7f4e487b7100000000000000000000000000000000000000000000000000000000600052602260045260246000fd5b600060028204905060018216806200084b57607f821691505b60208210810362000861576200086062000803565b5b50919050565b60008190508160005260206000209050919050565b60006020601f8301049050919050565b600082821b905092915050565b600060088302620008cb7fffffffffffffffffffffffffffffffffffffffffffffffffffffffffffffffff826200088c565b620008d786836200088c565b95508019841693508086168417925050509392505050565b6000819050919050565b60006200091a620009146200090e84620006e3565b620008ef565b620006e3565b9050919050565b6000819050919050565b6200093683620008f9565b6200094e620009458262000921565b84845462000899565b825550505050565b600090565b6200096562000956565b620009728184846200092b565b505050565b5b818110156200099a576200098e6000826200095b565b60018101905062000978565b5050565b601f821115620009e957620009b38162000867565b620009be846200087c565b81016020851015620009ce578190505b620009e6620009dd856200087c565b83018262000977565b50505b505050565b600082821c905092915050565b600062000a0e60001984600802620009ee565b1980831691505092915050565b600062000a298383620009fb565b9150826002028217905092915050565b62000a4482620007f8565b67ffffffffffffffff81111562000a605762000a5f6200057f565b5b62000a6c825462000832565b62000a798282856200099e565b600060209050601f83116001811462000ab1576000841562000a9c578287015190505b62000aa8858262000a1b565b86555062000b18565b601f19841662000ac18662000867565b60005b8281101562000aeb5784890151825560018201915060208501945060208101905062000ac4565b8683101562000b0b578489015162000b07601f891682620009fb565b8355505b6001600288020188555050505b505050505050565b62000b2b816200051f565b82525050565b600060208201905062000b48600083018462000b20565b92915050565b7f4e487b7100000000000000000000000000000000000000000000000000000000600052601160045260246000fd5b600062000b8a82620006e3565b915062000b9783620006e3565b925082820190508082111562000bb25762000bb162000b4e565b5b92915050565b62000bc381620006e3565b82525050565b600060608201905062000be0600083018662000b20565b62000bef602083018562000bb8565b62000bfe604083018462000bb8565b949350505050565b600060208201905062000c1d600083018462000bb8565b92915050565b61156a8062000c336000396000f3fe608060405234801561001057600080fd5b50600436106101005760003560e01c80638da5cb5b11610097578063db006a7511610066578063db006a75146102a1578063dd62ed3e146102bd578063e231bff0146102ed578063f2fde38b1461030b57610100565b80638da5cb5b1461021757806395d89b4114610235578063a9059cbb14610253578063d56d229d1461028357610100565b8063313ce567116100d3578063313ce567146101a157806370a08231146101bf578063715018a6146101ef5780637e830574146101f957610100565b806306fdde0314610105578063095ea7b31461012357806318160ddd1461015357806323b872dd14610171575b600080fd5b61010d610327565b60405161011a9190611008565b60405180910390f35b61013d600480360381019061013891906110c3565b6103b9565b60405161014a919061111e565b60405180910390f35b61015b6103dc565b6040516101689190611148565b60405180910390f35b61018b60048036038101906101869190611163565b6103e6565b604051610198919061111e565b60405180910390f35b6101a9610415565b6040516101b691906111d2565b60405180910390f35b6101d960048036038101906101d491906111ed565b61041e565b6040516101e69190611148565b60405180910390f35b6101f7610466565b005b61020161047a565b60405161020e9190611148565b60405180910390f35b61021f610480565b60405161022c9190611229565b60405180910390f35b61023d6104aa565b60405161024a9190611008565b60405180910390f35b61026d600480360381019061026891906110c3565b61053c565b60405161027a919061111e565b60405180910390f35b61028b61055f565b60405161029891906112a3565b60405180910390f35b6102bb60048036038101906102b691906112be565b610585565b005b6102d760048036038101906102d291906112eb565b6106eb565b6040516102e49190611148565b60405180910390f35b6102f5610772565b604051610302919061111e565b60405180910390f35b610325600480360381019061032091906111ed565b610785565b005b6060600380546103369061135a565b80601f01602080910402602001604051908101604052809291908181526020018280546103629061135a565b80156103af5780601f10610384576101008083540402835291602001916103af565b820191906000526020600020905b81548152906001019060200180831161039257829003601f168201915b5050505050905090565b6000806103c461080b565b90506103d1818585610813565b600191505092915050565b6000600254905090565b6000806103f161080b565b90506103fe858285610825565b6104098585856108b9565b60019150509392505050565b60006012905090565b60008060008373ffffffffffffffffffffffffffffffffffffffff1673ffffffffffffffffffffffffffffffffffffffff168152602001908152602001600020549050919050565b61046e6109ad565b6104786000610a34565b565b60075481565b6000600560009054906101000a900473ffffffffffffffffffffffffffffffffffffffff16905090565b6060600480546104b99061135a565b80601f01602080910402602001604051908101604052809291908181526020018280546104e59061135a565b80156105325780601f1061050757610100808354040283529160200191610532565b820191906000526020600020905b81548152906001019060200180831161051557829003601f168201915b5050505050905090565b60008061054761080b565b90506105548185856108b9565b600191505092915050565b600660009054906101000a900473ffffffffffffffffffffffffffffffffffffffff1681565b600860009054906101000a900460ff16156105d5576040517f08c379a00000000000000000000000000000000000000000000000000000000081526004016105cc906113d7565b60405180910390fd5b806105df3361041e565b1015610620576040517f08c379a000000000000000000000000000000000000000000000000000000000815260040161061790611443565b60405180910390fd5b61062a3382610afa565b60006106346103dc565b036106e8576001600860006101000a81548160ff021916908315150217905550600660009054906101000a900473ffffffffffffffffffffffffffffffffffffffff1673ffffffffffffffffffffffffffffffffffffffff166323b872dd30336007546040518463ffffffff1660e01b81526004016106b593929190611463565b600060405180830381600087803b1580156106cf57600080fd5b505af11580156106e3573d6000803e3d6000fd5b505050505b50565b6000600160008473ffffffffffffffffffffffffffffffffffffffff1673ffffffffffffffffffffffffffffffffffffffff16815260200190815260200160002060008373ffffffffffffffffffffffffffffffffffffffff1673ffffffffffffffffffffffffffffffffffffffff16815260200190815260200160002054905092915050565b600860009054906101000a900460ff1681565b61078d6109ad565b600073ffffffffffffffffffffffffffffffffffffffff168173ffffffffffffffffffffffffffffffffffffffff16036107ff5760006040517f1e4fbdf70000000000000000000000000000000000000000000000000000000081526004016107f69190611229565b60405180910390fd5b61080881610a34565b50565b600033905090565b6108208383836001610b7c565b505050565b600061083184846106eb565b90507fffffffffffffffffffffffffffffffffffffffffffffffffffffffffffffffff81146108b357818110156108a3578281836040517ffb8f41b200000000000000000000000000000000000000000000000000000000815260040161089a9392919061149a565b60405180910390fd5b6108b284848484036000610b7c565b5b50505050565b600073ffffffffffffffffffffffffffffffffffffffff168373ffffffffffffffffffffffffffffffffffffffff160361092b5760006040517f96c6fd1e0000000000000000000000000000000000000000000000000000000081526004016109229190611229565b60405180910390fd5b600073ffffffffffffffffffffffffffffffffffffffff168273ffffffffffffffffffffffffffffffffffffffff160361099d5760006040517fec442f050000000000000000000000000000000000000000000000000000000081526004016109949190611229565b60405180910390fd5b6109a8838383610d53565b505050565b6109b561080b565b73ffffffffffffffffffffffffffffffffffffffff166109d3610480565b73ffffffffffffffffffffffffffffffffffffffff1614610a32576109f661080b565b6040517f118cdaa7000000000000000000000000000000000000000000000000000000008152600401610a299190611229565b60405180910390fd5b565b6000600560009054906101000a900473ffffffffffffffffffffffffffffffffffffffff16905081600560006101000a81548173ffffffffffffffffffffffffffffffffffffffff021916908373ffffffffffffffffffffffffffffffffffffffff1602179055508173ffffffffffffffffffffffffffffffffffffffff168173ffffffffffffffffffffffffffffffffffffffff167f8be0079c531659141344cd1fd0a4f28419497f9722a3daafe3b4186f6b6457e060405160405180910390a35050565b600073ffffffffffffffffffffffffffffffffffffffff168273ffffffffffffffffffffffffffffffffffffffff1603610b6c5760006040517f96c6fd1e000000000000000000000000000000000000000000000000000000008152600401610b639190611229565b60405180910390fd5b610b7882600083610d53565b5050565b600073ffffffffffffffffffffffffffffffffffffffff168473ffffffffffffffffffffffffffffffffffffffff1603610bee5760006040517fe602df05000000000000000000000000000000000000000000000000000000008152600401610be59190611229565b60405180910390fd5b600073ffffffffffffffffffffffffffffffffffffffff168373ffffffffffffffffffffffffffffffffffffffff1603610c605760006040517f94280d62000000000000000000000000000000000000000000000000000000008152600401610c579190611229565b60405180910390fd5b81600160008673ffffffffffffffffffffffffffffffffffffffff1673ffffffffffffffffffffffffffffffffffffffff16815260200190815260200160002060008573ffffffffffffffffffffffffffffffffffffffff1673ffffffffffffffffffffffffffffffffffffffff168152602001908152602001600020819055508015610d4d578273ffffffffffffffffffffffffffffffffffffffff168473ffffffffffffffffffffffffffffffffffffffff167f8c5be1e5ebec7d5bd14f71427d1e84f3dd0314c0f7b2291e5b200ac8c7c3b92584604051610d449190611148565b60405180910390a35b50505050565b600073ffffffffffffffffffffffffffffffffffffffff168373ffffffffffffffffffffffffffffffffffffffff1603610da5578060026000828254610d999190611500565b92505081905550610e78565b60008060008573ffffffffffffffffffffffffffffffffffffffff1673ffffffffffffffffffffffffffffffffffffffff16815260200190815260200160002054905081811015610e31578381836040517fe450d38c000000000000000000000000000000000000000000000000000000008152600401610e289392919061149a565b60405180910390fd5b8181036000808673ffffffffffffffffffffffffffffffffffffffff1673ffffffffffffffffffffffffffffffffffffffff16815260200190815260200160002081905550505b600073ffffffffffffffffffffffffffffffffffffffff168273ffffffffffffffffffffffffffffffffffffffff1603610ec15780600260008282540392505081905550610f0e565b806000808473ffffffffffffffffffffffffffffffffffffffff1673ffffffffffffffffffffffffffffffffffffffff168152602001908152602001600020600082825401925050819055505b8173ffffffffffffffffffffffffffffffffffffffff168373ffffffffffffffffffffffffffffffffffffffff167fddf252ad1be2c89b69c2b068fc378daa952ba7f163c4a11628f55a4df523b3ef83604051610f6b9190611148565b60405180910390a3505050565b600081519050919050565b600082825260208201905092915050565b60005b83811015610fb2578082015181840152602081019050610f97565b60008484015250505050565b6000601f19601f8301169050919050565b6000610fda82610f78565b610fe48185610f83565b9350610ff4818560208601610f94565b610ffd81610fbe565b840191505092915050565b600060208201905081810360008301526110228184610fcf565b905092915050565b600080fd5b600073ffffffffffffffffffffffffffffffffffffffff82169050919050565b600061105a8261102f565b9050919050565b61106a8161104f565b811461107557600080fd5b50565b60008135905061108781611061565b92915050565b6000819050919050565b6110a08161108d565b81146110ab57600080fd5b50565b6000813590506110bd81611097565b92915050565b600080604083850312156110da576110d961102a565b5b60006110e885828601611078565b92505060206110f9858286016110ae565b9150509250929050565b60008115159050919050565b61111881611103565b82525050565b6000602082019050611133600083018461110f565b92915050565b6111428161108d565b82525050565b600060208201905061115d6000830184611139565b92915050565b60008060006060848603121561117c5761117b61102a565b5b600061118a86828701611078565b935050602061119b86828701611078565b92505060406111ac868287016110ae565b9150509250925092565b600060ff82169050919050565b6111cc816111b6565b82525050565b60006020820190506111e760008301846111c3565b92915050565b6000602082840312156112035761120261102a565b5b600061121184828501611078565b91505092915050565b6112238161104f565b82525050565b600060208201905061123e600083018461121a565b92915050565b6000819050919050565b600061126961126461125f8461102f565b611244565b61102f565b9050919050565b600061127b8261124e565b9050919050565b600061128d82611270565b9050919050565b61129d81611282565b82525050565b60006020820190506112b86000830184611294565b92915050565b6000602082840312156112d4576112d361102a565b5b60006112e2848285016110ae565b91505092915050565b600080604083850312156113025761130161102a565b5b600061131085828601611078565b925050602061132185828601611078565b9150509250929050565b7f4e487b7100000000000000000000000000000000000000000000000000000000600052602260045260246000fd5b6000600282049050600182168061137257607f821691505b6020821081036113855761138461132b565b5b50919050565b7f4e465420616c72656164792072656465656d6564000000000000000000000000600082015250565b60006113c1601483610f83565b91506113cc8261138b565b602082019050919050565b600060208201905081810360008301526113f0816113b4565b9050919050565b7f4e6f7420656e6f75676820746f6b656e73000000000000000000000000000000600082015250565b600061142d601183610f83565b9150611438826113f7565b602082019050919050565b6000602082019050818103600083015261145c81611420565b9050919050565b6000606082019050611478600083018661121a565b611485602083018561121a565b6114926040830184611139565b949350505050565b60006060820190506114af600083018661121a565b6114bc6020830185611139565b6114c96040830184611139565b949350505050565b7f4e487b7100000000000000000000000000000000000000000000000000000000600052601160045260246000fd5b600061150b8261108d565b91506115168361108d565b925082820190508082111561152e5761152d6114d1565b5b9291505056fea264697066735822122025ec2f7dca14ada925259bd5630f9d464ad56c747b870ac15640fd4526a852ca64736f6c63430008150033a26469706673582212207d39a2fdae40a679d8197b1fcd08bfb969c8b457ea27b376192f5c9b272c83a664736f6c63430008150033",
  "linkReferences": {},
  "deployedLinkReferences": {}
}